S00C00006D61696E2E7372656373
S11300000C942A000C943C000C943C000C943C008E
S11300100C943C000C943C000C943C000C943C006C
S11300200C943C000C9442010C9469000C943C0028
S11300300C943C000C943C000C943C000C943C004C
S11300400C943C000C943C000C943C000C943C003C
S11300500C943C0011241FBECFE5D8E0DEBFCDBF19
S113006020E0A0E6B0E001C01D92AF36B207E1F790
S11300700E946F010C947A010C9400000C944101CD
S11300800C94F3000C94E700089584B7807884BF3F
S11300901BBA1ABA18BA17BA15BA14BA12BA88E33C
S11300A081BB8FEF82BB08958AE083BF12BE87ECC9
S11300B08CBF87E088BF82E089BF12BE15BE109254
S11300C067001092660010926500109268007894A0
S11300D008951F920F920FB60F9211242F933F93FE
S11300E04F935F936F937F938F939F93AF93BF933C
S11300F0EF93FF938091680081112EC081E080937B
S1130100680078940E944400F8948091670018165F
S1130110F4F078940E9442008091660018168CF0E6
S11301200E94400083E68093660080916500181663
S113013024F00E943E0089E001C081508093650054
S113014003C0815080936600F89489E001C0815017
S11301508093670010926800FF91EF91BF91AF9177
S11301609F918F917F916F915F914F913F912F91CB
S11301700F900FBE0F901F901895089510926B006A
S113018082EF8FBD89E18EBD8BE690E097BD86BD81
S113019086B597B5969587959BBD8ABD86B597B567
S11301A09695879599BD88BD1DBC1CBC89B7846094
S11301B089BF8BE680936A008CE680936E008FE49F
S11301C080936D008FEC80936C000895089586B53C
S11301D097B5019696958795815090E09BBD8ABD11
S11301E099BD88BD0895809169008230D9F083302B
S11301F079F1813009F041C082E0809369008BE697
S113020090E097BD86BD1DBC1CBC80936A008CE643
S113021080936E008FE480936D008FEC80936C006C
S1130220939A089583E08093690080E690E097BDF7
S113023086BD1DBC1CBC80936A0081E680936E0061
S11302408AE780936D008AEF80936C0093980895F9
S113025081E0809369008BE590E097BD86BD1DBC6D
S11302601CBC80936A008CE580936E0085E58093C6
S11302706D0085ED80936C00089581E080936900A2
S1130280089508951F920F920FB60F9211248F9321
S11302909F9380916B0087FD11C080916E0086BD95
S11302A090916B0080916C00890F80936B009F91FB
S11302B08F910F900FBE0F901F90189580916A0038
S11302C086BD90916B0080916D00890F80936B00C7
S11302D09F918F910F900FBE0F901F9018950E94C1
S11302E045000E94BD000E9454000E94BE000E946E
S10B02F0E600FDCFF894FFCFF6
S9030000FC
